:020000040000FA
:0400000058EF00F0C5
:100008005B82FACF01F0FBCF02F0D9CF03F0DACF51
:1000180004F0F2AC12EF00F014EF00F04EEF00F035
:100028009DA819EF00F01BEF00F031EF00F09EA83B
:1000380020EF00F022EF00F031EF00F002D82FEFB0
:1000480000F00500FA6E0001ED51FD6EEE51FE6EF6
:10005800FF6AFA5012004EEF00F09DAA36EF00F04A
:1000680038EF00F04EEF00F09EAA3DEF00F03FEFB2
:1000780000F04EEF00F002D84CEF00F00500FA6EE9
:1000880001018D51FD6E8E51FE6EFF6AFA5012000D
:100098004EEF00F004C0DAFF03C0D9FF02C0FBFF37
:0C00A80001C0FAFF5B92110093EF23F0FF
:1010000000C2499A498A496E3A0E3EB649D83F4CC9
:101010004A444A3C4A344A2C4A244A1C4AAA499621
:101020004225342E3266206850610D0A0025342E88
:10103000326620B0430D0A00494E46004E414E0034
:10104000696E66006E616E006C660000000E000145
:101050007B6F000E7A6F42C08CF043C08DF044C0AD
:101060008EF045C08FF08FBF3AEF08F038EF08F0F0
:1010700050EF08F0000E7B6F010E7A6F8CC005F008
:101080008DC006F08EC007F08FC008F028EC23F06A
:1010900005C08CF006C08DF007C08EF008C08FF040
:1010A000000E0001936F000E926FE8C07FF0E9C060
:1010B00080F07A517B11D8A460EF08F062EF08F05D
:1010C00069EF08F054A467EF08F069EF08F083EFC8
:1010D00008F07A517B11D8A470EF08F072EF08F095
:1010E00078EF08F0000E656F2B0E646F7CEF08F050
:1010F000000E656F2D0E646F64C024F1924B932B2C
:101100007F07D8A080078CC005F08DC006F08EC088
:1011100007F08FC008F0E8EC1BF005040610D8A417
:1011200094EF08F096EF08F0EDEF08F0BF0E476E71
:10113000FF0E486E4650496E4A6A4750492648504D
:101140004A224A500AE11A0E495CD8A0AAEF08F0D8
:10115000ADEF08F0010EAEEF08F0000E0001666F73
:10116000676B66516711D8B4B8EF08F0BAEF08F0B2
:10117000C8EF08F0240E9225056E010E9321066E2D
:10118000380E076E100E086EE0EC21F0D4EF08F078
:10119000240E9225056E010E9321066E400E076EF9
:1011A000100E086EE0EC21F00001FD0E7F27FF0E0F
:1011B000802340C017F041C018F0240E196E010EB4
:1011C0001A6E7FC01BF080C01CF099EC1DF017C098
:1011D00040F018C041F025EF0EF08CC005F08DC036
:1011E00006F08EC007F08FC008F0E8EC1BF0055049
:1011F0000610D8A4FEEF08F000EF09F057EF09F051
:10120000BF0E476EFF0E486E4650496E4A6A475001
:10121000492648504A224A500AE11A0E495CD8A091
:1012200014EF09F017EF09F0010E18EF09F0000EA6
:101230000001686F696B68516911D8B422EF09F039
:1012400024EF09F032EF09F0240E9225056E010E0D
:101250009321066E3C0E076E100E086EE0EC21F036
:101260003EEF09F0240E9225056E010E9321066EC5
:10127000440E076E100E086EE0EC21F00001FD0E2A
:101280007F27FF0E802340C017F041C018F0240EC6
:10129000196E010E1A6E7FC01BF080C01CF099EC15
:1012A0001DF017C040F018C041F025EF0EF0000E01
:1012B0000001946F000E956F800E966F3F0E976F32
:1012C000000E916F000E906F8CC005F08DC006F07F
:1012D0008EC007F08FC008F0000E096E000E0A6E77
:1012E000000E0B6E000E0C6EB2EC1EF0D8B07BEF51
:1012F00009F07DEF09F000EF0AF09CEF09F094C0CF
:1013000005F095C006F096C007F097C008F0000EF3
:10131000096E000E0A6E200E0B6E410E0C6E5CEC18
:1013200013F005C094F006C095F007C096F008C011
:1013300097F00001904B912B8CC01EF08DC01FF0D8
:101340008EC020F08FC021F0000E096E000E0A6ED4
:10135000200E0B6E410E0C6E94C005F095C006F089
:1013600096C007F097C008F05CEC13F005C022F0BF
:1013700006C023F007C024F008C025F066EC1BF07F
:10138000D8B0C5EF09F0C7EF09F07FEF09F0E7EF3C
:1013900009F094C013F095C014F096C015F097C0F2
:1013A00016F0000E176E000E186E200E196E410E0C
:1013B0001A6E71EC15F013C094F014C095F015C0BE
:1013C00096F016C097F000019007D8A091078CC046
:1013D0001EF08DC01FF08EC020F08FC021F094C091
:1013E00022F095C023F096C024F097C025F066EC5B
:1013F0001BF0D8A0FEEF09F000EF0AF0C9EF09F0EA
:1014000046C00BF00C6AB0EC21F00B500001816F6C
:1014100081C07EF0670E8119D8A411EF0AF013EF96
:101420000AF039EF0AF0EA51EB11D8A41AEF0AF0EA
:101430001CEF0AF020EF0AF0000EEB6F010EEA6FCE
:10144000EBBF2DEF0AF0EB5106E1EA05D8B02BEF28
:101450000AF02DEF0AF033EF0AF0000E7D6F060E52
:101460007C6F42EF0AF0EAC07CF0EBC07DF042EF07
:101470000AF0EBBF3EEF0AF040EF0AF02DEF0AF062
:1014800033EF0AF0670E8119D8A449EF0AF04BEF49
:101490000AF07AEF0AF091AF59EF0AF0FC0E905D76
:1014A000FF0E9159D8A057EF0AF059EF0AF078EFE4
:1014B0000AF0FF0E476EFF0E486E7CC049F07DC0FB
:1014C0004AF04750492648504A229051495C4A50B8
:1014D000800A4B6E9151800A4B58D8A072EF0AF0E7
:1014E00074EF0AF078EF0AF0660E7E6F7AEF0AF07A
:1014F000650E7E6F7CC074F07DC075F0670E81193B
:10150000D8A485EF0AF087EF0AF097EF0AF0660E8D
:101510007E19D8A48EEF0AF090EF0AF099EF0AF046
:1015200091BF97EF0AF095EF0AF099EF0AF0744B2C
:10153000752B660E7E19D8A4A0EF0AF0A2EF0AF070
:10154000C2EF0AF091BFA9EF0AF0A7EF0AF0B5EFDA
:101550000AF0000E946F000E956F800E966F3F0E8E
:10156000976F000E916F000E906F670E8119D8B4BF
:10157000BCEF0AF0BEEF0AF0C2EF0AF090517427F8
:1015800091517523000E8B6F000E8A6F8CC082F014
:101590008DC083F08EC084F08FC085F094C060F061
:1015A00095C061F096C062F097C063F053EF0BF006
:1015B00082C013F083C014F084C015F085C016F00B
:1015C00094C017F095C018F096C019F097C01AF0A3
:1015D00071EC15F013C02CF014C02DF015C02EF0D6
:1015E00016C02FF03EEC17F02CC086F02DC087F00F
:1015F0002EC088F02FC089F086C005F087C006F0A5
:1016000088C007F089C008F0E3EC1AF005C078F054
:1016100006C079F082C01EF083C01FF084C020F0A5
:1016200085C021F094C009F095C00AF096C00BF077
:1016300097C00CF086C005F087C006F088C007F0A0
:1016400089C008F05CEC13F005C022F006C023F05E
:1016500007C024F008C025F064EC22F01EC082F020
:101660001FC083F020C084F021C085F094C013F027
:1016700095C014F096C015F097C016F0000E176EC6
:10168000000E186E200E196E410E1A6E71EC15F0D8
:1016900013C094F014C095F015C096F016C097F0E2
:1016A00000018A4B8B2B74518A5D8B51800A476EE7
:1016B0007551800A4758D8A060EF0BF062EF0BF02D
:1016C000D8EF0AF094C005F095C006F096C007F078
:1016D00097C008F0000E096E000E0A6EA00E0B6E89
:1016E000400E0C6E5CEC13F005C086F006C087F06F
:1016F00007C088F008C089F082C01EF083C01FF0C8
:1017000084C020F085C021F086C022F087C023F07D
:1017100088C024F089C025F066EC1BF0D8B093EFA8
:101720000BF095EF0BF0A0EF0BF0000E0001866FB1
:10173000000E876F000E886F000E896FC9EF0BF0E7
:1017400082C005F083C006F084C007F085C008F0B1
:1017500086C009F087C00AF088C00BF089C00CF081
:10176000B2EC1EF0D8A0B7EF0BF0B9EF0BF0C9EF59
:101770000BF0000178B1BFEF0BF0C1EF0BF0C9EF38
:101780000BF0000E866F000E876F000E886F000E44
:10179000896F8CC005F08DC006F08EC007F08FC039
:1017A00008F086C009F087C00AF088C00BF089C035
:1017B0000CF0FCEC10F005C082F006C083F007C00E
:1017C00084F008C085F060C094F061C095F062C0FC
:1017D00096F063C097F0650E00017E19D8B4F3EF60
:1017E0000BF0F5EF0BF0FBEF0BF090C076F091C033
:1017F00077F0FFEF0BF0000E776F000E766F000EA4
:10180000736F000E726F000E716F000E706F000E1E
:101810008B6F000E8A6FFBEF0CF082C013F083C059
:1018200014F084C015F085C016F094C017F095C070
:1018300018F096C019F097C01AF071EC15F013C0AB
:101840002CF014C02DF015C02EF016C02FF03EEC79
:1018500017F02CC086F02DC087F02EC088F02FC066
:1018600089F086C005F087C006F088C007F089C0FF
:1018700008F0E3EC1AF005C078F006C079F054B82F
:1018800044EF0CF046EF0CF064EF0CF000017851DF
:101890007911D8A44EEF0CF050EF0CF064EF0CF07F
:1018A000670E8119D8A457EF0CF059EF0CF064EFD4
:1018B0000CF077BF60EF0CF05EEF0CF064EF0CF013
:1018C000704B712BAFEF0CF0000172517311D8A463
:1018D0006CEF0CF06EEF0CF098EF0CF077BF75EF3B
:1018E0000CF073EF0CF098EF0CF0240E9225D96EEB
:1018F000010E9321DA6E2E0EDF6E924B932B7F0733
:10190000D8A08007000E736F010E726F98EF0CF075
:10191000240E9225D96E010E9321DA6E300EDF6E01
:10192000924B932B7F07D8A080077007D8A0710730
:1019300070517111D8A49FEF0CF0A1EF0CF088EF5B
:101940000CF0240E9225D96E010E9321DA6E785197
:10195000300FDF6E924B932B7F07D8A0800782C099
:101960001EF083C01FF084C020F085C021F094C019
:1019700009F095C00AF096C00BF097C00CF086C035
:1019800005F087C006F088C007F089C008F05CEC5D
:1019900013F005C022F006C023F007C024F008C0F1
:1019A00025F064EC22F01EC082F01FC083F020C03E
:1019B00084F021C085F094C013F095C014F096C057
:1019C00015F097C016F0000E176E000E186E200E60
:1019D000196E410E1A6E71EC15F013C094F014C01C
:1019E00095F015C096F016C097F000017607D8A0C4
:1019F00077078A4B8B2B74518A5D8B51800A476E17
:101A00007551800A4758D8B008EF0DF00AEF0DF075
:101A100018EF0DF093BF16EF0DF0935109E14B0E47
:101A2000925DD8A016EF0DF018EF0DF00DEF0CF051
:101A300072517311D8A41FEF0DF021EF0DF032EFAA
:101A40000DF054A826EF0DF028EF0DF032EF0DF059
:101A5000240E9225D96E010E9321DA6E2E0EDF6EC2
:101A6000924B932B240E9225D96E010E9321DA6EA0
:101A7000000EDF6E650E7E19D8A441EF0DF043EF26
:101A80000DF013EF0EF0000E8B6F4F0E8A6F240EC9
:101A90008A25D96E010E8B21DA6E000EDF6E000EE4
:101AA0007B6F000E7A6F91BF5AEF0DF058EF0DF07B
:101AB00062EF0DF0000E7B6F010E7A6F906D911F3B
:101AC000D8B0912B000E7D6F020E7C6F93EF0DF05E
:101AD0008A07D8A08B07240E8A25D96E010E8B2188
:101AE000DA6E90C005F091C006F0000E086E0A0E86
:101AF000076E5AEC1EF00550300FDF6E90C005F0F7
:101B000091C006F0000E086E0A0E076ED5EC1CF0B0
:101B100005C090F006C091F000017C07D8A07D07B9
:101B20007F07D8A0800790519111D8A49AEF0DF0AB
:101B30009CEF0DF068EF0DF07DBFA9EF0DF07D512A
:101B400006E17C05D8B0A7EF0DF0A9EF0DF068EF26
:101B50000DF08A07D8A08B077A517B11D8A4B3EF78
:101B60000DF0B5EF0DF0BBEF0DF0000E6B6F2B0E0F
:101B70006A6FBFEF0DF0000E6B6F2D0E6A6F240EB3
:101B80008A25D96E010E8B21DA6E6AC0DFFF7F07CE
:101B9000D8A080078A07D8A08B07BF0E476EFF0E1C
:101BA000486E4650496E4A6A4750492648504A2274
:101BB0004A500AE11A0E495CD8A0E1EF0DF0E4EFBB
:101BC0000DF0010EE5EF0DF0000E6E6F6F6B6E51B4
:101BD0006F11D8A4EEEF0DF0F0EF0DF0F6EF0DF071
:101BE000000E6D6F650E6C6FFAEF0DF0000E6D6FED
:101BF000450E6C6F240E8A25D96E010E8B21DA6E8C
:101C00006CC0DFFF7F07D8A08007240E9225056EE9
:101C1000010E9321066E240E8A25076E010E8B217C
:101C2000086EE0EC21F040C017F041C018F0240E1F
:101C3000196E010E1A6E7FC01BF080C01CF099EC6B
:101C40001DF017C040F018C041F012004EC0D9FF7F
:101C50004FC0DAFFDECFF6FFDDCFF7FFF86A0800EE
:101C6000F550250AD8A437EF0EF039EF0EF0DFEF6C
:101C700010F04EC0D9FF4FC0DAFFDE2A000EDD2281
:101C8000000E0001E96F000EE86FE8C054F0E9C0F3
:101C900055F0EA69EB694EC0D9FF4FC0DAFFDECFDD
:101CA000F6FFDDCFF7FFF86A0800F5502A0AD8A43E
:101CB0005CEF0EF05EEF0EF087EF0EF04EC0D9FF36
:101CC0004FC0DAFFDE2A000EDD2250C0D9FF51C01E
:101CD000DAFFDFCF98F0020EDE26DFCF99F0000E9C
:101CE000DD2298C0D9FF99C0DAFFDECFE8F0DDCF62
:101CF000E9F0E9BF80EF0EF07EEF0EF0CCEF0EF0D2
:101D00005480E86DE91FD8B0E92BCCEF0EF04EC03F
:101D1000D9FF4FC0DAFFDECF0CF0DDCF0DF016ECAF
:101D20001AF00CC0E8F00DC0E9F09EEF0EF04EC0C6
:101D3000D9FF4FC0DAFFDE2A000EDD22D00E0001EF
:101D4000986FFF0E996F4EC0D9FF4FC0DAFFDECFFC
:101D5000F6FFDDCFF7FFF86A0800F5509A6F9B6B2E
:101D600098519A2799519B239B510AE10A0E9A5D3B
:101D7000D8A0BDEF0EF0C0EF0EF0010EC1EF0EF0D7
:101D8000000E9C6F9D6B9C519D11D8A4CAEF0EF064
:101D9000CCEF0EF097EF0EF04EC0D9FF4FC0DAFF38
:101DA000DECFF6FFDDCFF7FFF86A0800F5502E0A08
:101DB000D8A4DDEF0EF0DFEF0EF05FEF0FF0000EB6
:101DC000EB6F000EEA6F4EC0D9FF4FC0DAFFDE2A7C
:101DD000000EDD224EC0D9FF4FC0DAFFDECFF6FF86
:101DE000DDCFF7FFF86A0800F5502A0AD8A4FBEF08
:101DF0000EF0FDEF0EF01AEF0FF04EC0D9FF4FC0FE
:101E0000DAFFDE2A000EDD2250C0D9FF51C0DAFF12
:101E1000DFCF98F0020EDE26DFCF99F0000EDD2234
:101E200098C0D9FF99C0DAFFDECFEAF0DDCFEBF042
:101E30005FEF0FF04EC0D9FF4FC0DAFFDECF0CF0DE
:101E4000DDCF0DF016EC1AF00CC0EAF00DC0EBF08F
:101E500031EF0FF04EC0D9FF4FC0DAFFDE2A000E7F
:101E6000DD22D00E0001986FFF0E996F4EC0D9FF92
:101E70004FC0DAFFDECFF6FFDDCFF7FFF86A0800CC
:101E8000F5509A6F9B6B98519A2799519B239B51C0
:101E90000AE10A0E9A5DD8A050EF0FF053EF0FF051
:101EA000010E54EF0FF0000E9E6F9F6B9E519F111D
:101EB000D8A45DEF0FF05FEF0FF02AEF0FF04EC0E8
:101EC000D9FF4FC0DAFFDECFF6FFDDCFF7FFF86AAC
:101ED0000800F5500B6E0C6AB0EC21F00B500001BD
:101EE000A66FA651D8B477EF0FF079EF0FF0B5EFEA
:101EF0000FF04EC0D9FF4FC0DAFFDECF98F0DDCF34
:101F000099F0010E9827000E992398C0F6FF99C00A
:101F1000F7FFF86A0800F5500B6E0C6AB0EC21F080
:101F20000B500001A76FA751D8B499EF0FF09BEFAA
:101F30000FF0B5EF0FF04EC0D9FF4FC0DAFFDECF84
:101F400098F0DDCF99F0020E9827000E992398C0E3
:101F5000F6FF99C0F7FFF86A0800F5500B6E0C6A9F
:101F6000B0EC21F00B500001A86F660EA619D8A4A2
:101F7000BCEF0FF0BEEF0FF0FFEF0FF04EC0D9FF38
:101F80004FC0DAFFDECFF6FFDDCFF7FFF86A0800BB
:101F9000F5CFA9F04EC0D9FF4FC0DAFFDE2A000E00
:101FA000DD2250C0D9FF51C0DAFFDFCF98F0040E18
:101FB000DE26DFCF99F0000EDD2298C0D9FF99C050
:101FC000DAFFDECFA2F0DECFA3F0DECFA4F0DECFCB
:101FD000A5F04CC040F04DC041F0A2C042F0A3C0FB
:101FE00043F0A4C044F0A5C045F0A9C046F026ECDB
:101FF00008F040C04CF041C04DF0FBEF10F0A60ED1
:10200000056E000E066E480E076E100E086E000E6E
:102010000A6E020E096E67EC1CF005500610D8A47B
:1020200014EF10F016EF10F0A8EF10F04EC0D9FF2B
:102030004FC0DAFFDECF98F0DDCF99F0010E00013E
:102040009827000E992398C0F6FF99C0F7FFF86A09
:102050000800F5CFA9F0BF0E986FFF0E996F4EC024
:10206000D9FF4FC0DAFFDECFF6FFDDCFF7FFF86A0A
:102070000800F5509A6F9B6B98519A2799519B23B2
:102080009B510AE11A0E9A5DD8A049EF10F04CEF6F
:1020900010F0010E4DEF10F0000EA06FA16BA051DB
:1020A000A111D8B456EF10F058EF10F072EF10F005
:1020B00050C0D9FF51C0DAFFDFCF98F0040EDE2602
:1020C000DFCF99F0000EDD2298C0D9FF99C0DAFF6A
:1020D000DECFA2F0DECFA3F0DECFA4F0DECFA5F0FE
:1020E0008AEF10F050C0D9FF51C0DAFFDFCF98F06F
:1020F000040EDE26DFCF99F0000EDD2298C0D9FF56
:1021000099C0DAFFDECFA2F0DECFA3F0DECFA4F0DD
:10211000DECFA5F0020E4EC0D9FF4FC0DAFFDE269B
:10212000000EDD224CC040F04DC041F0A2C042F094
:10213000A3C043F0A4C044F0A5C045F0A9C046F038
:1021400026EC08F040C04CF041C04DF0FBEF10F021
:102150004EC0D9FF4FC0DAFFDECFF6FFDDCFF7FF6D
:10216000F86A0800F550250AD8A4B9EF10F0BBEFC3
:1021700010F0D2EF10F04EC0D9FF4FC0DAFFDE2AC8
:10218000000EDD22000E086E250E076E4CC009F011
:102190004DC00AF05AEC1FF0000E4D6E010E4C6E51
:1021A000FBEF10F04EC0D9FF4FC0DAFFDE2A000E61
:1021B000DD22000E4D6E000E4C6EFBEF10F04EC097
:1021C000D9FF4FC0DAFFDECFF6FFDDCFF7FFF86AA9
:1021D0000800F550076E086A4CC009F04DC00AF0BF
:1021E0005AEC1FF04EC0D9FF4FC0DAFFDE2A000EB6
:1021F000DD22CCEF10F012000850800B116E085059
:102200000824136E07AE07EF11F009EF11F00AEF83
:1022100011F013801350D8B410EF11F012EF11F039
:1022200027EF11F01328D8A418EF11F01AEF11F0CE
:1022300022EF11F0000E056E000E066E000E076E06
:10224000000E086E078E000E086E2FEF11F0000EC4
:10225000056E000E066E000E076E000E086E0C5026
:10226000800B126E11501218D8B439EF11F03BEFF9
:1022700011F03CEF11F0118C0C500C24126E0BAECF
:1022800044EF11F046EF11F047EF11F012801250B9
:10229000D8B44DEF11F04FEF11F064EF11F01228A8
:1022A000D8A455EF11F057EF11F05FEF11F0000EC9
:1022B000096E000E0A6E000E0B6E000E0C6E0B8E79
:1022C000000E0C6E6CEF11F0000E096E000E0A6E1F
:1022D000000E0B6E000E0C6E1350125CD8B073EF34
:1022E00011F075EF11F09CEF11F011AC7AEF11F0D5
:1022F0007CEF11F07EEF11F0800E111A13C014F074
:1023000012C013F014C012F005C014F009C005F09B
:1023100014C009F006C014F00AC006F014C00AF098
:1023200007C014F00BC007F014C00BF008C014F085
:102330000CC008F014C00CF0000E146E135012C044
:102340000DF00E6A0D5E000E0E5A0EBEB1EF11F0CA
:102350000E5009E11A0E0D5CD8A0B1EF11F0B3EFE9
:1023600011F0EAEF11F00550061007100810D8A47C
:10237000BCEF11F0BFEF11F0010EC0EF11F0000E35
:10238000146E000E056E000E066E000E076E000E37
:10239000086E12C013F0F3EF11F014A0D2EF11F099
:1023A000D4EF11F0DAEF11F0D89014300109146E67
:1023B000DCEF11F0D890143205A0E1EF11F0E3EF5B
:1023C00011F0E4EF11F0148E0834083207320632AF
:1023D0000532132A1250135CD8A0F1EF11F0F3EF7D
:1023E00011F0CDEF11F011BCF8EF11F0FAEF11F090
:1023F0003AEF12F01350D8A400EF12F002EF12F0EF
:102400000CEF12F0000E056E000E066E000E076E49
:10241000000E086E5BEF13F0095005260A500622E5
:102420000B5007220C50082208A019EF12F01BEFE6
:1024300012F0C7EF12F014A020EF12F022EF12F00A
:1024400028EF12F0D89014300109146E2AEF12F020
:10245000D890143205A02FEF12F031EF12F032EFC6
:1024600012F0148E08340832073206320532132A6D
:10247000C7EF12F00950055C0A5006580B50075878
:102480000850800A0D6E0C50800A0D58D8B04BEFE2
:1024900012F04DEF12F078EF12F00550095C0D6E5E
:1024A00006500A580E6E07500B580F6E08500C5805
:1024B000106EFF0E0D24056EFF0E0E20066EFF0E31
:1024C0000F20076EFF0E1020086E800E111A146C7C
:1024D0001450D8A46EEF12F070EF12F080EF12F0EB
:1024E000010E0526000E06220722082280EF12F0B8
:1024F0000950055E0A50065A0B50075A0C50085AEC
:102500000550061007100810D8A489EF12F08BEFC1
:1025100012F0C0EF12F01450D8A491EF12F093EF24
:1025200012F0C0EF12F0000E056E000E066E000EE7
:10253000076E000E086E5BEF13F0D8900536063676
:102540000736083614AEA7EF12F0A9EF12F0AAEF83
:1025500012F0058014A0AFEF12F0B1EF12F0B5EF5A
:1025600012F0D8801436B7EF12F0D890143613500A
:10257000D8B4BDEF12F0BFEF12F0C0EF12F01306A7
:1025800007AEC5EF12F0C7EF12F09DEF12F0000E8C
:10259000126E14AECEEF12F0D0EF12F0E8EF12F0A0
:1025A00014C00DF07F0E0D16D8B4D9EF12F0DBEF8A
:1025B00012F0DFEF12F0010E126EE8EF12F005A03C
:1025C000E4EF12F0E6EF12F0E8EF12F0DBEF12F0BA
:1025D0001250D8B4EEEF12F0F0EF12F01BEF13F040
:1025E000010E0526000E06220722082208A0FBEF96
:1025F00012F0FDEF12F01BEF13F005C00DF006C056
:102600000EF007C00FF008C010F0103410320F3277
:102610000E320D320DC005F00EC006F00FC007F0EF
:1026200010C008F01328D8B418EF13F01AEF13F005
:102630001BEF13F0132A1328D8B421EF13F023EF64
:1026400013F02BEF13F01350D8A429EF13F02BEF56
:1026500013F03DEF13F0000E056E000E066E000E37
:10266000076E000E086E1350D8A439EF13F03BEF3D
:1026700013F03DEF13F0000E116E13A042EF13F0B4
:1026800044EF13F047EF13F0078E48EF13F0079E67
:10269000D8901330086E11AE50EF13F052EF13F0D4
:1026A00053EF13F0088E05C005F006C006F007C012
:1026B00007F008C008F012000850800B116E085097
:1026C0000824176E07AE67EF13F069EF13F06AEF97
:1026D00013F017801750D8B470EF13F072EF13F0A7
:1026E00085EF13F01728D8A478EF13F07AEF13F0E2
:1026F00082EF13F0000E056E000E066E000E076EE0
:10270000000E086E078E8DEF13F0000E056E000EA2
:10271000066E000E076E000E086E0C50800B111A2C
:102720000C500C24126E0BAE98EF13F09AEF13F0CE
:102730009BEF13F012801250D8B4A1EF13F0A3EF67
:1027400013F0B6EF13F01228D8A4A9EF13F0ABEFF3
:1027500013F0B3EF13F0000E096E000E0A6E000EB8
:102760000B6E000E0C6E0B8EBEEF13F0000E096E9A
:10277000000E0A6E000E0B6E000E0C6E1250D8B4D6
:10278000C4EF13F0C6EF13F0CEEF13F01750D8A438
:10279000CCEF13F0CEEF13F0D8EF13F0000E056E70
:1027A000000E066E000E076E000E086E70EF15F03C
:1027B0000B500502F3CF1CF0F4CF1DF01C50136E2C
:1027C000146A156A166A1D50186E196A1A6A1B6A0D
:1027D0000A500602F3CF1CF0F4CF1DF01C50132654
:1027E000000E1422152216221D501826000E192242
:1027F0001A221B2209500702F3CF1CF0F4CF1DF060
:102800001C501326000E1422152216221D501826C5
:10281000000E19221A221B2215C016F014C015F042
:1028200013C014F0136A09500602F3CF1CF0F4CF62
:102830001DF01C5013261D501422000E1522000EF0
:1028400016220A500502F3CF1CF0F4CF1DF01C50E5
:1028500013261D501422000E1522000E162215C03C
:1028600016F014C015F013C014F0136A09500502D5
:10287000F3CF1CF0F4CF1DF01C5013261D50142272
:10288000000E1522000E16220B500602F3CF1CF08C
:10289000F4CF1DF01C5018261D501922000E1A22CC
:1028A000000E1B220A500702F3CF1CF0F4CF1DF0DC
:1028B0001C5018261D501922000E1A22000E1B2231
:1028C0000B500702F3CF1CF0F4CF1DF01C500D6E1F
:1028D0001D500E6E0F6A106A0FC010F00EC00FF080
:1028E0000DC00EF00D6A0D5018260E5019220F5013
:1028F0001A2210501B2213C00DF014C00EF015C088
:102900000FF016C010F0190E8BEF14F0D8901032A3
:102910000F320E320D32E82E86EF14F00D501826CD
:102920000E5019220F501A2210501B2215C016F0FB
:1029300014C015F013C014F0136A125017C00DF034
:102940000E6A0D26000E0E22820E0D241C6EFF0E46
:102950000E201D6EC1EF14F0D890183619361A36B5
:102960001B3616AEB6EF14F0B8EF14F0B9EF14F052
:102970001880D89013361436153616361C06D8A093
:102980001D061AAEC6EF14F0C8EF14F0ACEF14F049
:10299000000E126E16AECFEF14F0D1EF14F0F5EF7B
:1029A00014F0FF0E13140D6EFF0E14140E6EFF0EB6
:1029B00015140F6E7F0E1614106E0D500E100F10A2
:1029C0001010D8B4E6EF14F0E8EF14F0ECEF14F0C8
:1029D000010E126EF5EF14F018A0F1EF14F0F3EF02
:1029E00014F0F5EF14F0E8EF14F01250D8B4FBEF48
:1029F00014F0FDEF14F021EF15F0010E1826000E73
:102A000019221A221B221BA008EF15F00AEF15F05D
:102A100021EF15F018C00DF019C00EF01AC00FF01C
:102A20001BC010F0103410320F320E320D320DC0B8
:102A300018F00EC019F00FC01AF010C01BF01C4A9D
:102A40001D2A1DBE2CEF15F01D5008E11C28D8A032
:102A50002CEF15F02EEF15F038EF15F0000E186E74
:102A6000000E196E800E1A6E7F0E1B6E66EF15F04B
:102A70001DBE45EF15F01D5006E11C04D8B043EF14
:102A800015F045EF15F051EF15F0000E186E000E21
:102A9000196E000E1A6E000E1B6E000E116E66EFA0
:102AA00015F01CC017F0FF0E1816FF0E19167F0E3A
:102AB0001A16000E1B1617A060EF15F062EF15F046
:102AC00063EF15F01A8ED89017301B6E11501B1241
:102AD00018C005F019C006F01AC007F01BC008F0B6
:102AE00012001650800B236E165016242A6E15AE57
:102AF0007CEF15F07EEF15F07FEF15F02A802A505D
:102B0000D8B485EF15F087EF15F09CEF15F02A2863
:102B1000D8A48DEF15F08FEF15F097EF15F0000E9C
:102B2000136E000E146E000E156E000E166E158ECE
:102B3000000E166EA4EF15F0000E136E000E146E4C
:102B4000000E156E000E166E1A50800B231A1A50C6
:102B50001A242B6E19AEAFEF15F0B1EF15F0B2EFEE
:102B600015F02B802B50D8B4B8EF15F0BAEF15F054
:102B7000CFEF15F02B28D8A4C0EF15F0C2EF15F059
:102B8000CAEF15F0000E176E000E186E000E196ECB
:102B9000000E1A6E198E000E1A6ED7EF15F0000E89
:102BA000176E000E186E000E196E000E1A6E17507A
:102BB000181019101A10D8A4E0EF15F0E2EF15F074
:102BC000FAEF15F0000E136E000E146E000E156E67
:102BD000000E166E800E15127F0E1612235016125E
:102BE00013C013F014C014F015C015F016C016F081
:102BF0003DEF17F02A50D8A400EF16F002EF16F0C0
:102C00000CEF16F0000E136E000E146E000E156E13
:102C1000000E166E3DEF17F02B502AC01BF01C6AF9
:102C20001B5E000E1C5A7F0E1B24246E000E1C20FF
:102C3000256E13C01FF014C020F015C021F016C07F
:102C400022F0000E136E000E146E000E156E000EB4
:102C5000166E000E266E000E276E000E286E000EF9
:102C6000296E000E2B6E6DEF16F02B50D8B43BEF93
:102C700016F03DEF16F054EF16F0D8901F362036C0
:102C800021362236D890133614361536163629AE2C
:102C90004CEF16F04EEF16F04FEF16F01380D89071
:102CA000263627362836293617501F5C18502058EC
:102CB000195021581A502258D8A061EF16F063EF2E
:102CC00016F06CEF16F0298C17501F5E1850205A22
:102CD0001950215A1A50225A2B2A190E2B6473EFBD
:102CE00016F075EF16F035EF16F01F50201021107A
:102CF0002210D8B47EEF16F080EF16F098EF16F0A1
:102D0000268098EF16F0D8901336143615361636FE
:102D100029AE8DEF16F08FEF16F090EF16F01380BE
:102D2000D89026362736283629362406D8A02506F8
:102D300015AE9DEF16F09FEF16F083EF16F0000E24
:102D40002B6E29AEA6EF16F0A8EF16F0CCEF16F01A
:102D5000FF0E26141B6EFF0E27141C6EFF0E281488
:102D60001D6E7F0E29141E6E1B501C101D101E1090
:102D7000D8B4BDEF16F0BFEF16F0C3EF16F0010E9A
:102D80002B6ECCEF16F013A0C8EF16F0CAEF16F0BA
:102D9000CCEF16F0BFEF16F02B50D8B4D2EF16F0F0
:102DA000D4EF16F0F8EF16F0010E1326000E1422E1
:102DB0001522162216A0DFEF16F0E1EF16F0F8EF5D
:102DC00016F013C01BF014C01CF015C01DF016C087
:102DD0001EF01E341E321D321C321B321BC013F07B
:102DE0001CC014F01DC015F01EC016F0244A252A80
:102DF00025BE03EF17F0255008E12428D8A003EFE3
:102E000017F005EF17F010EF17F0000E256E24688D
:102E1000000E136E000E146E000E156E000E166E70
:102E200025BE1DEF17F0255006E12404D8B01BEF96
:102E300017F01DEF17F02BEF17F0000E256E000EA8
:102E4000246E000E136E000E146E000E156E000E32
:102E5000166E000E236E24C02AF02AA032EF17F05F
:102E600034EF17F037EF17F0158E38EF17F0159E87
:102E7000D8902A30166EEEEF15F01200DEC03CF04E
:102E8000DFC03DF0E0C03EF0E1C03FF02CC03CF0C0
:102E90002DC03DF02EC03EF02FC03FF0810E306EB1
:102EA000FF0E316E3CC032F03DC033F03EC034F016
:102EB0003FC035F0180E62EF17F0D890353234323B
:102EC00033323232E82E5DEF17F0325030243A6E52
:102ED000000E31203B6E3BBE77EF17F03B5009E10F
:102EE000170E3A5CD8A077EF17F079EF17F083EF61
:102EF00017F02CC02CF02DC02DF02EC02EF02FC0BE
:102F00002FF046EF18F03BBE88EF17F08AEF17F06E
:102F1000FAEF17F03AC030F0FF0E316EFF0E326E4E
:102F20007F0E336E000E346E306699EF17F0A1EF0E
:102F300017F034343432333232323132302E94EFAF
:102F400017F031C036F032C037F033C038F034C03B
:102F500039F036503C14306E37503D14316E3850D5
:102F60003E14326E39503F14336E305031103210EF
:102F70003310D8A4BEEF17F0C0EF17F0C2EF17F070
:102F800079EF17F03CC030F03DC031F03EC032F078
:102F90003FC033F0200ED2EF17F0D89033323232E8
:102FA00031323032E82ECDEF17F030503110321080
:102FB0003310D8B4DEEF17F0E0EF17F0E8EF17F0BA
:102FC00036503C2637503D2238503E2239503F2261
:102FD000361C306E371C316E381C326E391C336E25
:102FE00030503C1631503D1632503E1633503F168D
:102FF0003EEF18F03CC030F03DC031F03EC032F042
:103000003FC033F0200E0AEF18F0D890333232323E
:1030100031323032E82E05EF18F0305031103210D6
:103020003310D8A416EF18F018EF18F022EF18F0AC
:10303000000E3C6E000E3D6E000E3E6E000E3F6EAA
:103040003EEF18F0D8903C34306E3D34316E3E3453
:10305000326E3F34336E3050311032103310D8B4EA
:1030600034EF18F036EF18F03EEF18F0000E3C6E1B
:10307000000E3D6E800E3E6EBF0E3F6E3CC02CF0CB
:103080003DC02DF03EC02EF03FC02FF012009EEC50
:1030900024F0F28EF28C110E166E010E176E5C0E7D
:1030A00014EC21F02C0E166E5C0EA2EC20F0010147
:1030B000826F2B0E166E5C0EA2EC20F00101836F66
:1030C00083510001BB6FBA6B010182510001BC6FDB
:1030D000BD6BBA51BC110101806F0001BB51BD1124
:1030E0000101816F80C105F081C106F0076A086A9D
:1030F000000E3CEC19F005C013F006C014F007C038
:1031000015F008C016F0000E176E000E186E7A0E3D
:10311000196E440E1A6E71EC15F013C074F114C0E0
:1031200075F115C076F116C077F12D0E0001B06F64
:10313000100EB16F74C1B2F075C1B3F076C1B4F0C6
:1031400077C1B5F02DEC24F0110E166E010E176E3E
:103150005C0E14EC21F0280E166E5C0EA2EC20F032
:103160000101846F290E166E5C0EA2EC20F00101A5
:10317000856F2A0E166E5C0EA2EC20F00101866FA0
:1031800085C1BAF00001BB6BBC6BBD6BBCC0BDF0B0
:10319000BBC0BCF0BAC0BBF0BA6B86C1BEF0BF6B9F
:1031A000C06BC16BBFC0C1F0BEC0C0F0BF6BBE6B17
:1031B000BA51BE11C26FBB51BF11C36FBC51C01118
:1031C000C46FBD51C111C56F010184510001C2110D
:1031D00001017C6F0001C35101017D6F0001C451E9
:1031E00001017E6F0001C55101017F6F7CC105F0B7
:1031F0007DC106F07EC107F07FC108F0000E3CECF7
:1032000019F005C013F006C014F007C015F008C08F
:1032100016F0000E176E000E186E800E196E450E19
:103220001A6E71EC15F013C078F114C079F115C065
:103230007AF116C07BF1210E0001B06F100EB16F54
:1032400078C1B2F079C1B3F07AC1B4F07BC1B5F006
:103250002DEC24F0060E0001BB6F130EBA6FAD0EFD
:10326000E82EFED7BA2FFCD7BB2FFAD700F000F01C
:103270004BEF18F058EF00F00D6E0D50D8B443EF3F
:1032800019F045EF19F067EF19F008BE4CEF19F08F
:103290004AEF19F067EF19F005C009F006C00AF00F
:1032A00007C00BF008C00CF0091E0A1E0B1E0C1EF6
:1032B000092A000E0A220B220C2209C00FF00AC0B4
:1032C00010F00BC011F00CC012F06FEF19F005C038
:1032D0000FF006C010F007C011F008C012F0055042
:1032E000061007100810D8A478EF19F07AEF19F03B
:1032F00084EF19F0000E056E000E066E000E076ECC
:10330000000E086E15EF1AF0960E0E6E8EEF19F085
:103310000E2AD8901232113210320F32000E0F14D2
:10332000096E000E10140A6E000E11140B6EFE0EC4
:1033300012140C6E09500A100B100C10D8A4A3EF35
:1033400019F0A5EF19F088EF19F0B3EF19F00E2A74
:10335000010E0F26000E102211221222D8901232D6
:10336000113210320F32000E0F14096E000E1014BD
:103370000A6E000E11140B6EFF0E12140C6E095023
:103380000A100B100C10D8A4C8EF19F0CAEF19F0EE
:10339000A7EF19F0D2EF19F00E06D8900F361036BD
:1033A0001136123611BED7EF19F0D9EF19F0E1EF4F
:1033B00019F0020E0E60DFEF19F0E1EF19F0CCEF1B
:1033C00019F00EB0E6EF19F0E8EF19F0E9EF19F097
:1033D000119ED8900E320EC009F00A6A0B6A0C6A70
:1033E00009C00CF00B6A0A6A096A09500F120A50E8
:1033F00010120B5011120C5012120D50D8B403EFD2
:103400001AF005EF1AF00DEF1AF008BE0CEF1AF0E3
:103410000AEF1AF00DEF1AF0128E0FC005F010C06F
:1034200006F011C007F012C008F01200000E1A6E6C
:10343000000E196E000E136E000E126E22EF1AF0BF
:103440000C4A0D2A010E186E0CC0F6FF0DC0F7FFD6
:10345000F86A0800F550200AD8B431EF1AF033EFBB
:103460001AF051EF1AF0F70E0E6EFF0E0F6E0CC031
:10347000F6FF0DC0F7FFF86A0800F550106E116AEC
:103480000E5010260F501122115009E1050E105C4C
:10349000D8A04DEF1AF04FEF1AF051EF1AF0000ECE
:1034A000186E18C014F0156A14501510D8A45BEFEC
:1034B0001AF05DEF1AF020EF1AF067EF1AF0000E25
:1034C000136E010E126E0C4A0D2A9EEF1AF00CC0FC
:1034D000F6FF0DC0F7FFF86A0800F5500E6E0F6A90
:1034E0000F50000AD8B477EF1AF09EEF1AF00E5082
:1034F0002B0AD8B463EF1AF0060AD8B45FEF1AF0BB
:103500009EEF1AF019C005F01AC006F0000E086E02
:103510000A0E076E41EC24F00CC0F6FF0DC0F7FF59
:10352000F86A0800F550055E000E065A300E0524B4
:10353000196E000E06201A6E63EF1AF0D00E0E6E92
:10354000FF0E0F6E0CC0F6FF0DC0F7FFF86A080003
:10355000F550106E116A0E5010260F5011221150A6
:103560000AE10A0E105CD8A0B8EF1AF0BBEF1AF00F
:10357000010EBCEF1AF0000E166E176A16501710E7
:10358000D8A4C5EF1AF0C7EF1AF082EF1AF0125064
:103590001310D8A4CEEF1AF0D0EF1AF0DEEF1AF025
:1035A00019C00EF01AC00FF00E1E0F1E0E4A0F2A81
:1035B0000EC00CF00FC00DF0E2EF1AF019C00CF0C5
:1035C0001AC00DF01200073408340E6E0E50D8A445
:1035D000ECEF1AF0EEEF1AF0F8EF1AF0000E056EAD
:1035E000000E066E000E076E000E086E65EF1BF0F3
:1035F00005C009F006C00AF007C00BF008C00CF0C7
:10360000200E08EF1BF0D8900C320B320A32093230
:10361000E82E03EF1BF009500D6E078EFF0E051606
:10362000FF0E0616FF0E0716000E0816960E0E5E0B
:103630000EBE1FEF1BF01DEF1BF035EF1BF00E5001
:10364000800A970FD8B027EF1BF029EF1BF02BEF64
:103650001BF0EEEF1AF0D89008320732063205322E
:103660000E3E2BEF1BF04DEF1BF01F0E0E643BEFD9
:103670001BF03DEF1BF045EF1BF0EEEF1AF0D8907A
:1036800005360636073608360E060E50D8A44BEF20
:103690001BF04DEF1BF03FEF1BF00D50D8B453EF74
:1036A0001BF055EF1BF05DEF1BF0081E071E061EFA
:1036B000056C000E06220722082205C005F006C090
:1036C00006F007C007F008C008F01200000E1E1434
:1036D000266E000E1F14276E800E2014286E7F0E9B
:1036E0002114296E2650271028102910D8A47BEF0A
:1036F0001BF07DEF1BF085EF1BF0000E1E6E000E21
:103700001F6E000E206E000E216E000E2214266E1B
:10371000000E2314276E800E2414286E7F0E2514AD
:10372000296E2650271028102910D8A49AEF1BF0D4
:103730009CEF1BF0A4EF1BF0000E226E000E236E18
:10374000000E246E000E256E21AEA9EF1BF0ABEF2C
:103750001BF0B4EF1BF01E6C1F1ED8B01F2A201EDA
:10376000D8B0202A800E215625AEB9EF1BF0BBEF52
:103770001BF0C4EF1BF0226C231ED8B0232A241E9A
:10378000D8B0242A800E2556000E1E1A000E1F1ACD
:10379000000E201A800E211A000E221A000E231A83
:1037A000000E241A800E251A22501E5C23501F582A
:1037B0002450205825502158D8B0E1EF1BF0E3EFFA
:1037C0001BF0E6EF1BF0D890E7EF1BF0D88012005B
:1037D000E2C00FF0E3C010F0E4C011F0E5C012F059
:1037E00005C00FF006C010F007C011F008C012F0BD
:1037F0000FC009F010C00AF011C00BF012C00CF09D
:10380000180E08EF1CF0D8900C320B320A32093235
:10381000E82E03EF1CF009500D6E0E6A0D500E10CD
:10382000D8A415EF1CF017EF1CF037EF1CF0D89060
:103830000F34096E10340A6E11340B6E12340C6E94
:1038400009500A100B100C10D8A429EF1CF02BEF14
:103850001CF031EF1CF0000E066E020E056E66EFD6
:103860001CF0000E066E030E056E66EF1CF00D28B0
:103870000E10D8A43EEF1CF040EF1CF062EF1CF0DD
:103880000FC009F010C00AF011C00BF012C00CF00C
:10389000090ED89009360A360B360C36E82E49EF59
:1038A0001CF009500A100B100C10D8B45AEF1CF081
:1038B0005DEF1CF0010E5EEF1CF0000E056E066A57
:1038C00066EF1CF0000E066E040E056E120005C0B9
:1038D0000CF006C00DF007C00EF008C00FF009068E
:1038E000D8A00A06092806E10A28D8A47AEF1CF015
:1038F0007CEF1CF089EF1CF0000E066E000E056ECA
:10390000D4EF1CF00C4A0D2A0E4A0F2A0906D8A043
:103910000A060CC0D9FF0DC0DAFFDF50D8B493EF10
:103920001CF095EF1CF0C2EF1CF00EC0F6FF0FC0AC
:10393000F7FFF86A0800F5500009D8B4A2EF1CF0B0
:10394000A4EF1CF0C2EF1CF009500A10D8B4ABEF82
:103950001CF0ADEF1CF0C2EF1CF00CC0D9FF0DC085
:10396000DAFFDF500B6E0EC0F6FF0FC0F7FFF86AEC
:103970000800F5500B18D8B4C0EF1CF0C2EF1CF0D3
:1039800082EF1CF00CC0D9FF0DC0DAFFDF500B6EC8
:103990000EC0F6FF0FC0F7FFF86A0800F5500B5C89
:1039A000056E066AD8A006061200000E0A6E08BE52
:1039B000DEEF1CF0DCEF1CF0E4EF1CF0076C081EDF
:1039C000D8B0082A010E0A6E06BEEBEF1CF0E9EF34
:1039D0001CF0F1EF1CF0056C061ED8B0062A010E93
:1039E0000A1A000E0C6E000E0B6E07500810D8B4A9
:1039F000FCEF1CF0FEEF1CF026EF1DF0010E096E2F
:103A000006EF1DF0D89007360836092A08AE0BEFEE
:103A10001DF00DEF1DF002EF1DF0D8900B360C36A7
:103A20000750055C08500658D8A019EF1DF01BEF91
:103A30001DF020EF1DF00750055E0850065A0B8060
:103A4000D89008320732092E0DEF1DF00A50D8B475
:103A50002CEF1DF02EEF1DF032EF1DF00B6C0C1E45
:103A6000D8B00C2A0BC005F00CC006F01200B3EC65
:103A700024F00009D8B43FEF1DF041EF1DF07CEFBA
:103A80001DF04FEF1DF026EC25F098EF1DF022EC15
:103A900025F098EF1DF01AEC25F098EF1DF012C1FB
:103AA0000EF013C10FF002D860EF1DF00500FA6EA2
:103AB00001010651FD6E0751FE6EFF6AFA501200B9
:103AC000106E116A1150000AD8B469EF1DF04BEF67
:103AD0001DF01050010AD8B44BEF1DF0030AD8B402
:103AE00043EF1DF0010AD8B447EF1DF0070AD8B420
:103AF0004BEF1DF04BEF1DF0010123911DC1D9FFCC
:103B00001EC1DAFF1D4B1E2BDF502AEC25F00101F0
:103B10001F07D8A020071F512011D8A492EF1DF035
:103B200094EF1DF097EF1DF0060E98EF1DF0030EB9
:103B3000120054A09EEF1DF0A0EF1DF0AAEF1DF0A3
:103B400019C010F01AC011F017C012F018C013F00D
:103B500087EC22F01CBEAFEF1DF0B1EF1DF0B7EF08
:103B60001DF01BC020F01CC021F0BBEF1DF0000EAB
:103B7000216E000E206E000E1F6E000E1E6ECDEF29
:103B80001DF0000E086E200E076E17C009F018C059
:103B90000AF05AEC1FF01E4A1F2A20501E5C1F50CC
:103BA000800A1D6E2150800A1D58D8A0DAEF1DF042
:103BB000DCEF1DF0C1EF1DF054B0E1EF1DF0E3EFBD
:103BC0001DF0EDEF1DF019C010F01AC011F017C074
:103BD00012F018C013F087EC22F019C005F01AC0DB
:103BE00006F060EC23F020500524176E21500620CB
:103BF000186E1200C60E5824D96EDA6A000EDA2248
:103C0000000EDF6EABA407EF1EF009EF1EF01EEFF3
:103C10001EF0C60E5824D96EDA6A000EDA220001B0
:103C2000DF8202D81EEF1EF00500FA6E01018B51F3
:103C3000FD6E8C51FE6EFF6AFA501200ABA223EFAC
:103C40001EF025EF1EF03AEF1EF0C60E5824D96E76
:103C5000DA6A000EDA220001DF8402D83AEF1EF0A1
:103C60000500FA6E01018951FD6E8A51FE6EFF6AF0
:103C7000FA501200C60E5824D96EDA6A000EDA2203
:103C8000DF50D8B446EF1EF048EF1EF057EF1EF09D
:103C900002D855EF1EF00500FA6E01018751FD6E46
:103CA0008851FE6EFF6AFA50120059EF1EF018ECB0
:103CB00024F01200000E0A6E06BE63EF1EF061EFE4
:103CC0001EF069EF1EF0056C061ED8B0062A010E24
:103CD0000A6E08BE70EF1EF06EEF1EF074EF1EF05D
:103CE000076C081ED8B0082A07500810D8B47BEF1C
:103CF0001EF07DEF1EF0A1EF1EF0010E096E85EFA4
:103D00001EF0D89007360836092A08AE8AEF1EF052
:103D10008CEF1EF081EF1EF00750055C085006582E
:103D2000D8A095EF1EF097EF1EF09BEF1EF0075006
:103D3000055E0850065AD89008320732092E8CEFDB
:103D40001EF00A50D8B4A7EF1EF0A9EF1EF0ADEF99
:103D50001EF0056C061ED8B0062A05C005F006C088
:103D600006F01200000E05140D6E000E06140E6E05
:103D7000800E07140F6E7F0E0814106E0D500E107B
:103D80000F101010D8A4C7EF1EF0C9EF1EF0D1EF2E
:103D90001EF0000E056E000E066E000E076E000E81
:103DA000086E000E09140D6E000E0A140E6E800EC1
:103DB0000B140F6E7F0E0C14106E0D500E100F10A2
:103DC0001010D8A4E6EF1EF0E8EF1EF0F0EF1EF0A2
:103DD000000E096E000E0A6E000E0B6E000E0C6EC9
:103DE000095005180FE10A5006180CE10B5007188E
:103DF00009E10C500818D8B400EF1FF002EF1FF0D3
:103E000005EF1FF0D89006EF1FF0D88012003EECAF
:103E100025F01DC1D9FF1EC1DAFFDF6E01011D4B68
:103E20001E2B1F07D8A020071F512011D8B41BEF4D
:103E30001FF01DEF1FF022EF1FF02EEC25F0050EF6
:103E400059EF1FF023872DEF1FF00EEC25F059EFEF
:103E50001FF012EC25F059EF1FF00CC10EF00DC150
:103E60000FF002D83DEF1FF00500FA6E0051FD6E15
:103E70000151FE6EFF6AFA501200106E116A115065
:103E8000000AD8B446EF1FF029EF1FF01050010AC6
:103E9000D8B429EF1FF0030AD8B425EF1FF0010AA8
:103EA000D8B425EF1FF0070AD8B429EF1FF029EF87
:103EB0001FF0120009500A10D8B461EF1FF063EF31
:103EC0001FF06CEF1FF009500A10D8A46AEF1FF022
:103ED0006CEF1FF071EF1FF00750E7EC24F0A4EF38
:103EE0001FF020EE04F00950D9260A50DA22DE50E5
:103EF000DE10D8B47EEF1FF080EF1FF09BEF1FF0B5
:103F000020EE04F00950D9260A50DA2210EE02F011
:103F10000950E1260A50E222DE50E65CE650800AB3
:103F20000F6EDE50800A0F58D8B099EF1FF09BEF4C
:103F30001FF0A4EF1FF020EE02F00950D9260A501E
:103F4000DA22DE2A000EDD221200056E010E066E58
:103F5000010123B5AEEF1FF0B0EF1FF0EAEF1FF045
:103F600005C01CF12393238523910E0E216F010EB2
:103F70001B6FF40E1A6F2387880E006F4A0E016FB5
:103F8000000E0C6F000E0D6F880E026F4A0E036F4D
:103F9000000E0E6F000E0F6F880E046F4A0E056F35
:103FA000000E106F000E116F880E066F4A0E076F1D
:103FB000000E126F000E136F840E086F4A0E096F09
:103FC000000E146F000E156F50EC25F066EC24F017
:103FD000000E066E0650120001012387FDEF1FF050
:103FE0001EEC25F029EF20F03CEC25F0030E29EF24
:103FF00020F01AEC25F029EF20F00CC10EF00DC1D5
:104000000FF002D80DEF20F00500FA6E0051FD6EA2
:104010000151FE6EFF6AFA501200106E116A1150C3
:10402000000AD8B416EF20F0F9EF1FF01050010A83
:10403000D8B4F9EF1FF0030AD8B4F0EF1FF0010A6B
:10404000D8B4F0EF1FF0070AD8B4F4EF1FF0F9EF7F
:104050001FF01200096E05500610D8B432EF20F0A0
:1040600034EF20F04EEF20F00950020D000EF32443
:10407000D96E010EF420DA6E05C0DEFF06C0DDFF4A
:104080000950020D0C0EF324D96E010EF420DA6EE5
:1040900007C0DEFF08C0DDFF66EF20F00950020D0B
:1040A000000EF324D96E010EF420DA6E880EDE6E57
:1040B0004A0EDD6E0950020D0C0EF324D96E010E6E
:1040C000F420DA6E000EDE6E000EDD6E12009D9A98
:1040D000F40E056E3B0E066EF6EC24F09D98960EDF
:1040E000056E450E066EF1EC24F0080EB86E900ECB
:1040F000AB6E240EAC6ECF0EAF6E000EB06EA40E83
:10410000056E4A0E066E00EC25F0680E056E4A0E2E
:10411000066EFBEC24F06E0E056E4A0E066E05EC84
:1041200025F0000E0001EC6F000E5A6E000E596E65
:10413000080EEF6F000E586E000E576E000E566E92
:104140009D8A1200176E000E186E1750A5EC1FF016
:104150000009D8B4AEEF20F0B0EF20F0A5EF20F0CA
:10416000AC0E0A6E470E0B6E180E0C6E000E0D6E26
:1041700092EC24F0160E056E000E066E000E086E10
:10418000010E076E54EC24F0000E0A6E000E0B6E4A
:10419000000E0C6E000E0D6E86EC24F00AEC25F07D
:1041A00002EC24F0E806D8B4D8EF20F0DAEF20F0E3
:1041B000D0EF20F01850120050EC25F0010123A19F
:1041C000E4EF20F0E6EF20F0F3EF20F0B3EC24F082
:1041D0000009D8B4EEEF20F0F0EF20F0F3EF20F07C
:1041E0000F0E0101216F01012151020D010EF32477
:1041F000F66E100EF420F76EF86A000EF822090031
:10420000F5CF12F00900F5CF13F002D811EF21F02D
:104210000500FA6E1250FD6E1350FE6EFF6AFA50E2
:1042200012000101216F1200186E1850A5EC1FF04A
:104230000009D8B41EEF21F020EF21F015EF21F096
:10424000540E0A6E470E0B6E170E0C6E000E0D6E9E
:1042500092EC24F0160E056E000E066E000E086E2F
:10426000010E076E54EC24F0000E0A6E000E0B6E69
:10427000000E0C6E000E0D6E86EC24F00AEC25F09C
:1042800002EC24F0E806D8B448EF21F04AEF21F020
:1042900040EF21F0120001012391020E226F59EF2D
:1042A00021F01EEC25F07DEF21F01AEC25F07DEFDA
:1042B00021F010C10EF011C10FF002D869EF21F00A
:1042C0000500FA6E0451FD6E0551FE6EFF6AFA504C
:1042D0001200106E116A1150000AD8B472EF21F06A
:1042E00055EF21F01050020AD8B451EF21F0010A25
:1042F000D8B451EF21F055EF21F01200ACC052F0CC
:10430000ADC053F0000E0001E76F000EE66F9CEFAA
:1043100021F0AAC04CF0ABC04DF0520E4E6E000E14
:104320004F6EAEC050F0AFC051F026EC0EF04C50C6
:104330000001E6274D50E72352C0F6FF53C0F7FFB8
:10434000F86A0800F5500009D8A4A9EF21F0ABEFF6
:1043500021F089EF21F0E6C0AAF0E7C0ABF012002F
:10436000BF0E0D6EFF0E0E6E0BC00FF00CC010F0E6
:104370000D500F260E50102210500AE11A0E0F5C3D
:10438000D8A0C5EF21F0C8EF21F0010EC9EF21F050
:10439000000E116E126A11501210D8B4D2EF21F033
:1043A000D4EF21F0DBEF21F0200E0B100B6E0C5040
:1043B0000C6EDFEF21F00BC00BF00CC00CF0120004
:1043C00007C00BF008C00CF005C00DF006C00EF0E1
:1043D0000B50096E0C500A6E0B4A0C2A09C0F6FFEE
:1043E0000AC0F7FF000EF86E0DC0D9FF0EC0DAFF4D
:1043F0000D4A0E2A0F0EF76403D00800F55005D0C1
:10440000F6CFE9FFF7CFEAFFEF50DF6EDF50D8A419
:104410000CEF22F00EEF22F0E8EF21F01200056E13
:104420000001EF51D8B417EF22F019EF22F010EF8E
:1044300022F09DB81EEF22F020EF22F024EF22F0B0
:1044400005C0ADFF39EF22F09D98D60E5A24D96EE3
:10445000DA6A000EDA2205C0DFFF5A2A070E5A6414
:1044600034EF22F036EF22F038EF22F0000E5A6ED1
:10447000EF079D881200010E0B6E200E0518061026
:10448000D8B445EF22F047EF22F060EF22F0F70EAC
:10449000076EFF0E086E05C009F006C00AF007504F
:1044A000092608500A220A5009E1050E095CD8A025
:1044B0005CEF22F05EEF22F060EF22F0000E0B6E58
:1044C0000BC005F0066A1200000E221A000E231A15
:1044D000000E241A800E251A1EC005F01FC006F01B
:1044E00020C007F021C008F022C009F023C00AF064
:1044F00024C00BF025C00CF0FCEC10F005C01EF041
:1045000006C01FF007C020F008C021F01200000E06
:10451000166E000E156E98EF22F014C007F0086AB0
:1045200012C009F013C00AF05AEC1FF0154A162AFF
:1045300015501024D96E16501120DA6EDF50146E0B
:104540001450D8A4A6EF22F0A8EF22F08DEF22F0AD
:104550001200146E010E156E010123B3B2EF22F0AA
:10456000B4EF22F0C9EF22F02383000E156E145031
:10457000D8B4BDEF22F0BFEF22F0C3EF22F0010E5E
:10458000216FC5EF22F0020E216F4AEC25F077EC87
:1045900024F015501200080E0001EF61D2EF22F056
:1045A000D4EF22F0EAEF22F0D60E5924D96EDA6A5F
:1045B000000EDA22DF50AD6E592A070E5964E3EF80
:1045C00022F0E5EF22F0E7EF22F0000E596EEF2B1C
:1045D000EBEF22F09D98120020EE02F00E50D9264B
:1045E0000F50DA22DECF05F0DDCF06F00EC0D9FF86
:1045F0000FC0DAFFDECF07F0DDCF08F054EC24F077
:10460000000E0A6E000E0B6E000E0C6E000E0D6E8C
:1046100092EC24F0020E1200BF0E076EFF0E086E21
:1046200005C009F006C00AF00750092608500A2202
:104630000A500AE11A0E095CD8A021EF23F024EFFA
:1046400023F0010E25EF23F0000E056E066A12001E
:104650000550061007100810D8B431EF23F033EFDF
:1046600023F03BEF23F0000E051A000E061A000E91
:10467000071A800E081A05C005F006C006F007C02C
:1046800007F008C008F01200D00E076EFF0E086E8B
:1046900005C009F006C00AF00750092608500A2292
:1046A0000A500AE10A0E095CD8A059EF23F05CEF2A
:1046B00023F0010E5DEF23F0000E056E066A120076
:1046C00005C007F006C008F068EF23F0054A062A87
:1046D00005C0D9FF06C0DAFFDF50D8A472EF23F07F
:1046E00074EF23F066EF23F00750055C056E085069
:1046F0000658066E1200000E8D6E000E8C6E000EB7
:10470000896E000E8A6E000E8B6E070E966E926892
:104710009368BF0E946E95687E681F0E7F6E000EC4
:104720007C6EF18E120001EE00F0740EEE6AE80667
:10473000FDE100EEC6F0270EEE6AE806FDE100EEB0
:1047400054F0070EEE6AE806FDE15B905B92000113
:1047500047EF18F00EC005F00FC006F0000E086E0F
:10476000010E076E54EC24F0000E0A6E000E0B6E64
:10477000000E0C6E000E0D6E92EC24F0040E120072
:104780000EC005F00FC006F0000E086E020E076E98
:1047900054EC24F0000E0A6E000E0B6E000E0C6E30
:1047A000000E0D6E92EC24F0020E12000EC005F009
:1047B0000FC006F0000E086E010E076E54EC24F0D8
:1047C000000E0A6E000E0B6E000E0C6E000E0D6ECB
:1047D00092EC24F0020E12000EC005F00FC006F09D
:1047E000000E086E020E076E54EC24F0000E0A6EE6
:1047F000000E0B6E000E0C6E000E0D6E92EC24F08F
:10480000040E1200010E056E010123B30AEF24F01D
:104810000CEF24F016EF24F023951C6950EC25F0E2
:104820004CEC25F04EEC25F022C105F005501200AD
:10483000CE0E5824D96EDA6A000EDA22AECFDFFF30
:10484000582A070E586427EF24F029EF24F02BEFA5
:1048500024F0000E586E562A1200B20E0001B86FF6
:10486000000EB96F000EAA6F000EAB6FB0C0ACF0B7
:10487000B1C0ADF0B80EAE6F000EAF6F7EEC21F0A0
:10488000120005500702F3CF09F0F4CF0AF00550EB
:104890000802F3500A2606500702F3500A2609C000
:1048A00005F00AC006F01200010123A75AEF24F018
:1048B0005CEF24F065EF24F005C01DF106C01EF189
:1048C00007C01FF108C020F123971200C6BA6BEF92
:1048D00024F06DEF24F076EF24F0000EC76E080E82
:1048E000C66E000EC56E130EC86EC68A12007DEF2E
:1048F00024F0BDEC24F0DCEC20F0010123B383EFC5
:1049000024F085EF24F079EF24F012000AC005F0BE
:104910000BC006F00CC007F00DC008F0020E2AEC28
:1049200020F012000AC005F00BC006F00CC007F022
:104930000DC008F0000E2AEC20F012003AEC25F031
:10494000A9EC24F07BEC23F0ECEC24F067EC20F0F5
:104950001200000EC76E080EC66E000EC56E130E56
:10496000C86EC69A1200C5BCB8EF24F0BBEF24F0A5
:10497000010EBCEF24F0000E12009EA6C2EF24F040
:10498000C4EF24F0BDEF24F01200010123811C517B
:104990001C252AEC25F0030E120001012381D8808A
:1049A0001C352AEC25F0050E120001012393000EA0
:1049B000226F0E0E12000101239140EC25F0040E2F
:1049C000120001012393000E226F0E0E1200066EDC
:1049D00006500FEC22F01200600ED36E000E9B6E9C
:1049E000120005C0EDF006C0EEF0120005C08DF11A
:1049F00006C08EF1120005C089F106C08AF11200CE
:104A000005C08BF106C08CF1120005C087F106C00D
:104A100088F11200000EA9EC22F0120031EC25F012
:104A2000090E120031EC25F00A0E12002EEC25F0D2
:104A3000050E120046EC25F0000E120048EC25F0A1
:104A4000010E120048EC25F0020E120048EC25F091
:104A5000010E1200056E05C0C9FF1200C59AC58877
:104A60001200C58AC5881200AB98AB88120018ECFA
:104A700024F01200D09E12009E861200C95012002F
:104A8000C5861200050E1200010E1200C584120028
:104A9000C5821200C58012009D961200C69A1200AF
:064AA0009E9612001200B8
:020000040020DA
:08000000FFFFFFFFFFFFFFFF00
:020000040030CA
:0E000000FF081F1EFF0B81FF0FC00FE00F4017
:00000001FF
